:020000040000fa
:080000000002040000000000f2
:020000040000fa
:100400008f9f2200007f2400000188000000000070
:100410000c000700e0222500110020001100070059
:10042000000020000000e000020032000000020096
:1004300000000000f02a0200010000000040da0085
:100440000000fe004440a90020b920000000e000a8
:100450000300320000002000a00188004440a800f2
:100460000000060091018800800078000000eb0089
:1004700015003700e280400032a0b4009101ba00bc
:10048000e280400032a0b4009102ba00e280400055
:1004900032a0b4000002eb00472bde00f507b200eb
:1004a000602ce10004003a000059eb008301e900f0
:1004b000fdff3e00040037006128e100010032002a
:1004c0000082eb00040007001101ba000200e00006
:1004d000e8ff3a00000006003159ba008301e90044
:1004e0000c0032002159ba008301e90008003200f3
:1004f0000400e00003003a00e280400032a0b400b3
:10050000f5ff370011d9ba008301e900faff3a007c
:100510008100e800e180400032a0b4000000060045
:10052000ca80040001000000a22b040001000000aa
:100530001094040001000000669204000100000015
:1005400036940400010000001c16040001000000a5
:100550000e150400010000002e150400010000002b
:100560002a160400010000003616040001000000f5
:1005700044150400010000001016040001000000f2
:100580006c26040001000000c822040001000000e5
:10059000d824040001000000302104000100000004
:1005a000b61f040001000000122304000100000037
:1005b000f22304000100000080200400010000007c
:1005c000ba250400010000002427040001000000f7
:1005d000ae620400010000005c6304000100000042
:1005e0004864040001000000ae6404000100000043
:1005f000c864040001000000e06404000100000081
:10060000a065040001000000388d04000100000016
:10061000a02e040001000000c4330400010000000b
:100620004e30040001000000c493040001000000eb
:1006300008e10400000000002405040000000000a0
:100640003200f80091018800023b88000008bb00de
:100650000500fc0051052000313b8800a10a200064
:10066000313b880061e7a8000000000000000000a6
:100670003200f900000006000400a100010037006c
:100680000400a0003200f80091018800110024004d
:10069000013b8800f10f20003208bb000400a700d6
:1006a000b20078000198bb008301e900faff3a002c
:1006b000680151000400a700680151006800500063
:1006c0001208bb00e2ff3700f30f20003200f800f1
:1006d0009101880031002400013b88000208bb0022
:1006e0000388bb00daff37003200f800003b8800c7
:1006f000d7ff37008001eb000200370081717800de
:100700008301e800828f5100fcff3a0000000600e0
:10071000889fbe000004be00a04f81000000e000e2
:1007200001003200000001000800e00001003a0072
:10073000984f81000800be009501070000044400a6
:100740001804e00004003a00609f2200904f8900e6
:100750000004eb00070037000800be009e01070000
:10076000000044001004e000010032000058eb00db
:10077000904f8900080078004f04be00000006007a
:10078000800178000001780031407800005978003d
:100790000004e000fcff3a000300780000000600bf
:1007a00080007800010037000000e8001004e0003d
:1007b000fdff3a00010050000000060080017800b3
:1007c00000017800010037000201e8001204e00097
:1007d000fdff3a00020037000201e8008100e80056
:1007e00011407800004978000004e000faff3a0068
:1007f0000300780000000600ec874700889fbe00d9
:100800008a9fbe008c9fbe008e1f7800f0b79f00ad
:1008100081bf9f0082047800000478000100370047
:100820000804e800184778000e00fb007c01070070
:100830000000e000faff3a00d0c2b300804f57003a
:100840000500320000c0e900804f5700020032006e
:1008500000477800010037000804e8000900e000c4
:1008600045003500e18f5400430032004002200073
:10087000808f540040003c000900e0000e0034006e
:10088000f08f54001a003a0000c3b300984f1000d4
:1008900016003a009840900080c7b30080cf500007
:1008a0000300320080c5b30080cf50000f003a0033
:1008b0000884e8000e003700a900200000c3b30040
:1008c000984f10000a003a009840900080c7b3008b
:1008d00080cf5000040032008900200080c5b300a2
:1008e00080cf500002003a000884e800090120008f
:1008f0000805780000c3b300010037000a05e800ce
:100900009a4f1000fdff32008a0578006066b8003b
:100910000e003700107a220000425200c4ef9f0000
:100920006149b9000c00be00b00507004fea97000e
:100930000401fb00cf91de008b05e800ccb79f00df
:10094000ddb79f0000064100818649001b00fb00c7
:100950003b0107008000780009017800107a22002e
:100960003e010700000278000000e000e9ff3a00c5
:100970008b0f540006003a000fb897000000e0000b
:1009800029003200ffb097000108780026003700e8
:100990008a805500c077220060c07c000000fb0008
:1009a00000805000160033004240a9000f003c00b8
:1009b0004fe997000200fb00cf80de0000005600e8
:1009c00081805e00800f5600818f5e000700390035
:1009d0006149b9008b0507004fb19700dfb197005f
:1009e000820f5000838f5800050032002002200043
:1009f000f04d89000086eb008086eb000500370093
:100a0000d0c2b300804f570002003a0060061600c3
:100a1000e0861e008fb997000300e000030032005b
:100a20008b097800010037006066b8000c00be003a
:100a30004f0778004f06be004f05be004f04be00b2
:100a4000cf00b10000000600881f78000204780083
:100a50009a000700080040004f04780000000600dc
:100a60000000fa00881f7800000478003fb9970062
:100a7000ea815700800078004052200007010700fb
:100a8000800078000000e000020035000040eb002c
:100a900000f47800010078004f0478000080fa002c
:100aa00000000600881f7800004c81000000e00074
:100ab0000100320000000100d04b81000000e00086
:100ac0000100320000000100602d81000000e00004
:100ad0000100320000000100302d81000000e00024
:100ae0000100320000000100209822001004e00004
:100af00026003a00e04b8100f14b81000004eb003e
:100b0000d26026009301200038050700f2352f003f
:100b1000e3c6230000004100818049000804e8008a
:100b2000e80f5400f6ff3a00e04b8900f14b8900d2
:100b3000e85a2200d260260093012000e04b810099
:100b4000f14b810029050700f2352f00e3c6230091
:100b50000000410081804900e04b8900f14b890091
:100b6000009cbe00e0622200800f5400f1ff3a00ba
:100b70005031810061318100402d8900512d890063
:100b800011c0b3002098220001487800d2602600ee
:100b900093012000e04b8100f14b81001305070019
:100ba000f2352f00e3c62300000041008180490098
:100bb000e04b8900f14b8900825a22001201780033
:100bc0007f0161004211dd00e35a22000301410070
:100bd0001202be00442d8900552d89000089be00f7
:100be000402d8100512d81004008de0000f0a10061
:100bf0004f04780000000600881f78000004780089
:100c0000004c81000000e000010032000000010003
:100c1000209822000048eb00d04b81000000e0004b
:100c200001003200000001006140b800e04b890083
:100c3000f14b89004f047800000006008001eb00b2
:100c400008003700e342780063c278008301e800bf
:100c500084cf5200030032000080eb000400390012
:100c600010000500828f5100f6ff3a000000eb00f3
:100c700000000600040037000204e0000a00320011
:100c80000000e8008100e80010417800914f510019
:100c9000f9ff32000081eb0010407800914f5000c6
:100ca00004003900020037000001eb0001003700aa
:100cb0001200200002007800000006008001eb0016
:100cc0000200370061f079008301e800828f510053
:100cd000fcff3a0000000600040037000204e000b8
:100ce00001003a00000005000000e8001041780013
:100cf000814f5100f9ff3a0000000600889fbe00b6
:100d000081047800114478000804e00009003a00ea
:100d10000c0037008001780009017800d24078008b
:100d20000104e00007003200d3cf1000fbff3200c7
:100d30000000e8008800fb00e7ff07000000e0007b
:100d4000f4ff3a004f04be00000006008001780066
:100d50008002eb0001003700845978000503510040
:100d6000828f52000900320065c278008502e800d7
:100d70000404e000f8ff3a00830078000681410097
:100d80008058eb00828f5000fdff3a000000060003
:100d9000000278000b0037000101780092417800d2
:100da0000304e00002003a000400500000000600c6
:100db00083cf5200020032000201e800f7ff370043
:100dc0000000e800904278000504e000f2ff3a00dd
:100dd0000400500000000600000278000700370001
:100de00083cf52000a0032000201e80092417800ed
:100df0000304e000faff3a000000e80090427800a7
:100e00000504e0000400320001017800f7ff37001c
:100e1000040050000000060004005000000006001e
:100e20006900e100040035006d00e10003003400ba
:100e30000002b100010032000000050010000500b2
:100e4000800078001104b100030035009101b10069
:100e500001003c000050a000000006008001eb00f3
:100e6000040037008301e80090cf10000400320036
:100e70000000e800828f5100faff3a000000eb000a
:100e800000000600e04d81000000e000010032009b
:100e900000000100e09b2200000006006200fa0052
:100ea000889fbe008a9fbe000004be000205780035
:100eb0008300780060f92f000f004000b0000700a9
:100ec00088979f0099979f000000eb00a09f9f00cc
:100ed0009a4578000b80fb000000ea00cf04de009a
:100ee00050c2b30080cf55000200320009047800e0
:100ef000010037000904e9000800e0000b0034009d
:100f00001f909700080178008a0078008f91970061
:100f10000300010090979f000000e0009300320062
:100f20002f98970000004400a09f9f0009054500ee
:100f300050c2b30080cf5500040032000b04e00023
:100f4000e3ff3a002f989700890037000000eb007c
:100f5000809f9f00f0979f00e0979f00d0979f0091
:100f6000c0979f00b0979f00c09f9f000900370067
:100f700000952200008050000000400041942200b3
:100f8000e10078004f98970001007000c09f9f001b
:100f90000a05e8001a4478008800fb00009522004a
:100fa0004dff0700800078000000e000f0ff3a00ed
:100fb000a0c2b300804f54000e003a00bf889700d3
:100fc0000180e900b08f9f0010007800b09f9f0063
:100fd0000000e00005003d000000ea00b09f9f0017
:100fe0004f9897000020a000c09f9f000a05e800ce
:100ff00010003700b19f9f0003fd2f00f4ff270072
:10100000080037003f989700840f5000040032001a
:101010006a00b9000000410003004000b09f9f003b
:101020000a05e8001a01fb0003004100e90f500027
:10103000f4ff3600e0c2b3009a4f10000400320003
:101040000080eb00909f9f008a0478001c0037000e
:101050008a04e800a0c2b300994f100007003a00cc
:10106000bf8897000180e900b08f9f0010007800d2
:10107000909f9f008a84e800110037000000eb0079
:10108000909f9f0003fd2f00f4ff2700080037000a
:101090001f989700840f5000040032006a00b900c6
:1010a0000000410003004000909f9f008904e80079
:1010b0001901fb0003004100e90f5000f4ff360066
:1010c000194478008800fb00c098220002ff070046
:1010d0000000e00002003a00004478000100370000
:1010e0008904e800a87f9f0080c6b300804f5400a9
:1010f00004003a00994f14000a003a00664050007c
:1011000006003700c0c6b300804f540005003a0007
:10111000994f140003003a0065404000a07f9f00f3
:101120008904e8000905e800cbfb2f008f85450006
:101130001901fb0060f92f000f0040000084e80057
:101140008b0178008000780008007800110007000b
:101150000000e00005003a008b00780008007800ed
:101160004f0107000000e00059ff3d000080eb0048
:101170004f05be004f04be000080fa0000000600cc
:101180000200fa00f1bf9f00010878000080fa0019
:1011900000000600889fbe008a1f780000047800c7
:1011a000010278008244780003057800e0c6b300ad
:1011b000804f5100d200320015003c006b405000bf
:1011c000804f5100240032000a003c007040500063
:1011d000804f51000f01320065404000804f5100a8
:1011e0007400320050c2b300804f510020013a0019
:1011f0001c01370040c6b300804f51001b00320075
:1012000065404000804f510019013a001700370037
:1012100030c7b300804f5100fe00320007003c0091
:1012200064405000804f5100620032000040e800ee
:10123000804f51000e013a00e700370050c7b3005d
:10124000804f51005b00320063404000804f5100ee
:1012500007013a00570037009180e900010a780041
:10126000780090009171780007013700a860900025
:10127000c0c6b30080cf50000a003a009400780046
:1012800064805000000a78001000be004f89de0024
:10129000cf91de000002be000203780082037800d6
:1012a0001300370010c7b30080cf50000300320096
:1012b000a0c6b30080cf500006003a00940078002a
:1012c00068805000000a78003002be002003be0093
:1012d000070037001480e900000a78001000780049
:1012e00000027800cfa2de000503780086037800b4
:1012f000049cbe000694be00a860900080c6b300a7
:1013000080cf50000e00320020c6b30080cf5000c6
:1013100005003a000400fb00cf80de0001017800e8
:10132000820178000a00370040c7b30080cf500028
:10133000030032006640400080cf500006003a00b3
:1013400004007800cf80de0001017800820178007f
:10135000009cbe000294be003800be002801be0002
:10136000e00f5000e08f5800e00f5900e08f590067
:1013700003003d0078009000d1c2b3000a0037009e
:10138000081090000018a3000300320078009000bd
:10139000b1c2b300040037000008a30053003200bc
:1013a0007800900001c2b300017578000000e800e9
:1013b0004d003700a8609000c0c6b30080cf500039
:1013c00006003a009400780064805000000a78001b
:1013d0001002be006033b8001300370010c7b3001e
:1013e00080cf500003003200a0c6b30080cf500071
:1013f00006003a009400780068805000000a7800e7
:101400003002be002003be00070037001480e90050
:10141000000a780010007800000278000500200023
:101420000600200007002000049cbe000694be00b9
:10143000a860900080c6b30080cf50000e0032003c
:1014400020c6b30080cf500005003a000480fb00a6
:101450000100200002002000030020000a003700e5
:1014600040c7b30080cf5000030032006640400008
:1014700080cf500006003a000400780001002000f0
:101480000200200003002000009cbe000294be0069
:10149000081090000038a300140032003800be008d
:1014a0002801be00e00f5000e08f5800e00f590007
:1014b000e08f59000d00320080c7b30080cf540088
:1014c0000300320080c5b30080cf540007003a000b
:1014d0007800900001c3b300017578008000e80037
:1014e00009f578000080e80070049800780090000a
:1014f00000004500600498008940780042003700f1
:10150000a8609000c0c6b30080cf50002500320014
:101510000a003c006440500080cf50002800320098
:1015200000c0e80080cf5000140032006840500036
:1015300080cf500022003a000a00370040c7b300b5
:1015400080cf50001e0032006640400080cf500027
:101550001b0032006940500080cf500018003a0054
:10156000060037001480e900000a780010007800b7
:10157000485c900008487800450037001480e90076
:10158000000a78001002780068089000cf80de0022
:101590000101780082017800009abe000292be002c
:1015a0003b0037001480e900000a78001001780041
:1015b00068089000cf80de000089be00340037004c
:1015c0001480e900000a780010007800680c900090
:1015d000080878002e0037001180e90080087800a4
:1015e00010007800cf80de000101780082017800d1
:1015f000009cbe000294be007800900000004500f0
:101600006004980081c7b30008007800ee0007006e
:101610001f0037001480e900000a780010007800ed
:1016200060049800580990000200e00002003d00ac
:101630005bfc0700090037008000eb0007fe070095
:10164000800078000000e000030032006800900095
:10165000008050000100370058089000100c9800de
:101660000b00370078009000027578000600370004
:1016700078009000800045000904e00001003a0075
:1016800059c2b300894878000000e800700498004f
:101690000000eb004f0578004f04be00000006007c
:1016a0000400fa00889fbe008a9fbe008c1f78004d
:1016b000000478000106780070089000f80090009f
:1016c0000100500088089000010050009808900028
:1016d00001005000a808900001005000b8089000d8
:1016e00001005000c808900081055000000222004f
:1016f00090bf9f0000032300a0bf9f000810900030
:101700000028a30018003a000b00e0001600340087
:101710008b04780009057800e28f5400020036003f
:101720002a002000020037000900e0000b0034000e
:1017300058009000c80190000a017800ee80570020
:1017400003000100500498000000e0009600320001
:101750006808900000004500600c98008a845400de
:101760004240a900ebff3c00780190000200e0003d
:101770000b00340058009000c80190008c007800e5
:1017800003000100500498000000e00086003200d1
:1017900068089000f800900001004000600c98007c
:1017a000880c90000900e00015003400090578005d
:1017b000e28f5400020036002a00200002003700a9
:1017c0000900e0000b00340058009000c8019000b0
:1017d0000a017800ec8057000300010050049800d3
:1017e0000000e00070003200680890000000450032
:1017f000600c98008a8454004240a900ebff3c0032
:10180000180990000200e0000b003400e80090008e
:1018100058009000c8019000030001005004980097
:101820000000e00060003200680890009808900016
:1018300001004000600c9800a80c90000900e00036
:101840001500340009057800e28f540002003600cc
:101850002a002000020037000900e0000b003400dd
:1018600058009000c80190000a017800ec805700f1
:1018700003000100500498000000e0004a0032001c
:101880006808900000004500600c98008a845400ad
:101890004240a900ebff3c00380990000200e00044
:1018a0000d003400e800900018089000808040008f
:1018b00058009000c80190000300010050049800f7
:1018c0000000e0003800320068089000b80890007e
:1018d00001004000600c9800c80c90000900e00076
:1018e0001500340009057800e28f5400020036002c
:1018f0002a002000020037000900e0000b0034003d
:1019000058009000c80190000a017800ec80570050
:1019100003000100500498000000e00022003200a3
:101920006808900000004500600c98008a8454000c
:101930004240a900ebff3c00081090000028a300e3
:101940001b0032000b00e000190034008b0478000b
:1019500009057800e28f5400020036002a002000ba
:10196000020037000900e0000b003400580090002e
:10197000c80190000a017800ee80570003000100c2
:10198000500498000000e000070032006808900052
:1019900000004500600c98008a8454004240a90071
:1019a00003003400eaff37000080eb00010037003d
:1019b0000000eb004f0678004f05be004f04be004c
:1019c0000080fa00000006002f03b000889fbe00d0
:1019d0008a9fbe008c9fbe008e1f78000007780093
:1019e000708d2200c0b79f0080c5b30080cf50002b
:1019f00008003200628c2200c2b79f00774040008e
:101a000080cf500003003a0083002000b3b79f004e
:101a10000a00370080c7b30080cf500005003200b5
:101a2000a4002000b4b79f0080c5b30080cf500051
:101a300002003a0005012000b5b79f003e04be0039
:101a40002e05be0040c6b30080cf50000300320018
:101a50006540400080cf50000b003a00e00f54007a
:101a6000e08f5c00e00f5d00e08f5d0006003d0050
:101a70006000b8006011b800080450008984580064
:101a80000a0559008b855900bfb39700e88f5300b2
:101a900003003200f08f530045003a000200370087
:101aa000360020000100370046002000e00f5400ff
:101ab000e08f5c00e00f5d00e08f5d0005003a0004
:101ac0005e08900081012000a1b79f000000e000a7
:101ad000080032003fb197000200e90008006000f2
:101ae000cfb197006340780090df9f007401200021
:101af000a4b79f00860278008502e9000500330044
:101b00008b05d1000a85d3008984d3000884d300d3
:101b1000f9ff3700089fbe000a97be00afb39700d9
:101b20000700e90021fc2f008f8040000082400068
:101b30003fb197008202e90012003700afb397006f
:101b40008703e900a7b79f0000806200cfb097002d
:101b5000615278003e00be002e01be008603780070
:101b60008703e900050033008381d1000281d3009f
:101b70008180d3000080d300f9ff3700009fbe00b2
:101b80000297be003e00be002e01be00e00f5000d6
:101b9000e08f5800e00f5900e08f5900d600340064
:101ba000afb397000700e000e4ff3c00d20037002d
:101bb000ae60900080c6b30080cf50000b003200b2
:101bc00006003c000104e0000800320066405000be
:101bd00080cf500073003a0004003700c0c6b30045
:101be00080cf50006f003a003100370008017800c4
:101bf0000800e00005003a005e0890008101200026
:101c0000a1b79f000000e00009003200bfb19700bb
:101c1000110009000381d8008000fd004fb2970039
:101c20006440780090df9f0075012000a5b79f00f9
:101c3000bfb39700110009000781d8008001780028
:101c4000afb097000100e90022fc2f000f01410016
:101c5000000241000c003700bfb2970011000900dc
:101c60008501d80000017800afb397008703e90031
:101c7000a7b79f000590b90000805100cfb0970032
:101c800061527800820178000300e0000300340014
:101c90002fb197000200e000efff3c000300780046
:101ca000cf80de0001017800820178003a00370021
:101cb0000806be00e00f5400e08f5c0005003a000b
:101cc0005e08900083012000a3b79f000000e000a1
:101cd000090032003fb297006121b9000c00be003c
:101ce0002d030700cfb297006540780090df9f007a
:101cf00077012000a7b79f003fb297006121b9008c
:101d00000c00be00bf0007000006be00afb2970087
:101d10000500e90027fc2f008f83430080834300e8
:101d200097b79f00110037003fb197006114b900c9
:101d30000801be000c00be001a0307000005be002b
:101d4000afb197008301e900a3b79f000801be006f
:101d5000a6000700000056001fb29700cfb2970000
:101d60006552780094b79f000a06be00e00f560047
:101d7000e08f5e0003003400afb397000700e0007f
:101d8000e9ff3c004feade00cfa2de000c00be00ff
:101d90000401780084017800009fbe000297be0015
:101da00055003700e00f5400e08f5c00e00f5d004d
:101db000e08f5d0005003a005e0890008101200080
:101dc000a1b79f000000e0000d0032003fb1970076
:101dd00002027800cfa2de000503780086037800b7
:101de0000800be000a01be00330207004fb2970090
:101df0006440780090df9f0075012000a5b79f0028
:101e00003fb1970002027800cfa2de000503780000
:101e1000860378000800be000a01be001f0207000a
:101e2000009fbe000297be00afb197000300e9001b
:101e300024fc2f000f024200000642002000370061
:101e4000bfb2970005047800cfc4de000905780012
:101e50008a0578000802be000a03be005fa897004a
:101e6000efa897007fa997008fb19700160207008f
:101e7000d0b79f00e1b79f00f2b79f0083bf9f00dc
:101e8000afb397008703e900a7b79f000802be0021
:101e90000a03be00920207005faa970000005200ea
:101ea000cfb29700655678005fb09700efb097000b
:101eb0007fb197008fb99700009fbe000297be00c8
:101ec0003e00be002e01be00d0af9f00e1af9f00dc
:101ed000f2af9f0083b79f00e00f5000e08f5800e3
:101ee000e00f5900e08f590003003400afb09700b5
:101ef0000100e000d2ff3c003fb19700e80f510025
:101f000013003a000e1090000038a30010003200b9
:101f1000afb19700f78f510006003e0024fc2f0060
:101f20000f0242008300420000c3b300914f100033
:101f300007003200afb297008502e900a5b79f0005
:101f400000c3b30027fc2f008f83430080f37a0087
:101f5000afb1970078811100120f98006e009000c9
:101f600024fc2f000f0242008300420053fb0700b5
:101f70001e0990005e089000800f510006003d0091
:101f800002005000000f98000e1090000040a100c9
:101f9000001798000f0037000000e0000d003d0022
:101fa0000e10900074006000f00f500009003a001d
:101fb0007e089000fe009000010050008e08900006
:101fc00001005000020050004240a900010034000e
:101fd000000f98004f0778004f06be004f05be0067
:101fe0004f04be002f03b10000000600020ab90032
:101ff000001bb9000200b8008100420081004300cc
:10200000000006006022b800060220000000d00098
:102010008180d2000482d2008582d2000000a0001c
:102020000202520083825a00030031000202420081
:1020300083824a000000a1000603e900f3ff3a0092
:1020400000000600889fbe008a9fbe008c1f78009b
:10205000630207006a02330003866c006450e100eb
:102060002e0032006420e100330032006150e100b4
:102070002f0032006120e1003100320085855500db
:10208000eb07b0000900200008042000050037001d
:102090000804440089844c000a0031000603430010
:1020a00087834b000001530081815b00f8ff330000
:1020b0000203be000800a0000804440089844c000c
:1020c000f6ff3900c639dd008301730001003200dc
:1020d000130020008904d1000884d3000998a300cc
:1020e000050032000800a7000300a0008904d10009
:1020f0000884d3008b05e8008904d1000884d3004c
:102100000001eb000281d2004d02070001f0a100a6
:102110000cf0a70001f0a000420237006420e100ab
:10212000440232000801be000200be00f7ff370083
:102130006120e1003f0232006000b800f3ff370089
:102140000000200001f82700f0ff3700f4ff2f0007
:10215000610237000001be007a0207000470a70088
:1021600003f0a10003f8a30013003a006509b100d1
:1021700010003200090035006928e1000200350036
:102180000100280000000500000040008180480098
:102190008502e900fcff3a0000000600f88f4200cb
:1021a000050035008100d1000080d3008502e800e1
:1021b000fcff3a00000006008000eb000000050074
:1021c000889fbe008a9fbe00010578000100e000e4
:1021d0000400350008003c000000e0002000320050
:1021e0000500370060001000e080180002003b008e
:1021f00001f02c001a0037000004be006011b80086
:102200006b0920000982cf00020039000882cf004c
:102210000441b000694252000e00320008003b0049
:1022200082817100610164008904d1000884d300b7
:102230008b05e8000442e800f9ff3a00050037008a
:102240000804440089844c008b05e9000442e9003d
:10225000fbff3a00fa0107000af0a70001f0a00016
:102260004f05be004f04be000000060003f0a200b0
:10227000889fbe008a9fbe008c1f7800d80107008f
:10228000df0133006450e1004f0032006420e100c0
:102290005200320003826c0007003b000905d000a9
:1022a0000306d000820f54000c065d0002003900c6
:1022b000020032008901780003067800858255000b
:1022c00004003d000003fd008103fd008502ea00db
:1022d0008b854200840f720002003b0060001000fa
:1022e000e08018006011b8000005eb007a28e100da
:1022f0000a00390006007800c75ddd00f707b2006c
:10230000878075002d003700828171000a017800f6
:10231000610560008180d1000080d3008502e90062
:10232000f9ff3b00060440008784480002003b00a0
:1023300060041400e0841c000988a3000700320038
:102340008a81710082817100610164008904d10079
:102350000884d3008b05e800170037000978a30034
:1023600013003a000b00e000130034008b05e90075
:102370000804440089844c000a4474000978a300ce
:102380000d003a000b00e000070034008b05e90067
:102390000804440089844c0001003a000b0020002e
:1023a0000978a300f7ff32000001eb0002003700bc
:1023b000828171000a017800a10107000cf0a700da
:1023c00001f0a000970137006420e10002003a000c
:1023d000838f6c00970133000801be000200be002d
:1023e00090013700889fbe008a9fbe008c1f780036
:1023f0007b0107008201330003866c006450e1001a
:10240000240032006420e100270032006150e10026
:10241000220032006120e100210032008b85420061
:10242000eb07b1000134b800003ab80008044200dc
:1024300089844a00013ab8000030b8008880400022
:1024400009014a0004003300000040008180480078
:10245000020149008b05e900c909dd008301700014
:102460000100320013002000c814de004814dd0013
:102470004709de001200b200c808de0008847000c0
:102480006f01070001f0a1000cf0a70001f0a0000f
:10249000640137006120e100660132000801be00de
:1024a0000200be00f7ff37006150e100fcff3a0078
:1024b00060013700881f7800000478005001be00da
:1024c0004000be000400400085804800060149002d
:1024d00087814900009cbe000294be000400e10018
:1024e0000588e1000690e1000798e1000200310054
:1024f000680044001008e8004f047800000006005f
:10250000f4874700889fbe008a9fbe008c9fbe0054
:102510008e1f78000205be000004be00d4b79f00e5
:10252000e5b79f00f6b79f0087bf9f000000eb0054
:10253000c0b79f00b0b79f00a0b79f0090b79f00a3
:1025400080b79f000d042000bfb097004fb09700e8
:10255000000140000000e0000f003d004f08de00d9
:1025600000007100c0b79f009e00070001003d0001
:1025700012002000a100070001003d001200200011
:10258000a6000700b1000700b60007000f004000da
:10259000c8ff0700220037004f08de000006710068
:1025a000ccb79f008f00070001003d001200200003
:1025b0009200070001003d00120020009700070074
:1025c000a20007000fb297009fb297002fb39700a9
:1025d000bfb39700a90007000000520081805a0095
:1025e00002015b0083815b0080b79f0091b79f0071
:1025f000a2b79f00b3b79f000007eb009f00070042
:102600000020e10001a8e10002b0e10003b8e10010
:10261000010031001e0020000e005600c0b79f00d0
:102620004fb297000400e0000700350010002000c2
:10263000010020006011b800080470008984700057
:102640000a0571008b8571008d06e900beff3a0016
:102650000400e00003003d00820007000f0040007e
:1026600094ff07004fa897000000e00004003a0024
:102670000fb497009fb497002fb59700bfb5970090
:10268000940007004f0778004f06be004f05be00bc
:102690004f04be004f01b10000000600881f780003
:1026a00018002000881f780095ff07008f87e90039
:1026b0004f04780000000600801feb0090ff070029
:1026c0008f87e90000000600889fbe008a9fbe0039
:1026d0008c1f78006e00070007003d0073000700a4
:1026e000e00f5b00e08f5b0007003d003200070059
:1026f0000006eb00040037003400070002003d0034
:102700002a0007001c00200072000700e3ff0700fa
:102710000203be000002be000c00e0000100320017
:10272000220007000400be000601be004f0678002c
:102730004f05be004f04be0000000600889fbe008b
:102740008a9fbe008c1f78005100070005003d00e5
:1027500056000700e00f5b00e08f5b0006003d00c5
:10276000040037001900070003003d006000b800b6
:102770006011b8001000070056000700ceff0700e8
:102780000203be000002be000c00e00001003200a7
:10279000060007000400be000601be004f067800d8
:1027a0004f05be004f04be00000006006000b800e8
:1027b0006011b80000003700040250008582580004
:1027c0000603590087835900000006000006eb004d
:1027d000e00f5200e08f5a00e00f5b00e08f5b00db
:1027e000000006000180400090b79f000001eb0050
:1027f0008fb097000100e0000000060002007000aa
:1028000090b79f000180400080b79f000001eb005f
:10281000ffa897000100e000000006000200700021
:1028200080b79f00018040006faa9700cf20de0094
:1028300001007000f0af9f00040242002500070075
:102840004f18de000002720000000600e4af9f0097
:102850000804440089844c000a054d008b854d0016
:10286000000006003fb29700cfb297005fb3970019
:10287000efb3970000fe2f00000006003fb0970066
:10288000cfb097005fb19700efb19700000006004e
:102890000205be000004be00e00f5000e08f5800ab
:1028a000e00f5900e08f5900000006006000b800fa
:1028b0006011b80008045000898458000a055900c6
:1028c0008b8559001c002000e00f5200e08f5a0059
:1028d000000006000800be000a01be00000006005d
:1028e000889fbe008a9fbe008c1f78000205be0034
:1028f0000004be000006eb00e00f5000e08f58001f
:10290000e00f5900e08f590007003d006000b8005b
:102910006011b80008045000898458000a05590065
:102920008b8559001c002000e00f5200e08f5a00f8
:10293000e00f5b00e08f5b0002003d000f0007002e
:102940000c00a2000800be000a01be0092000700b1
:102950000203be000002be000c00e00001003200d5
:10296000060007000400be000601be004f06780006
:102970004f05be004f04be00000006006000b80016
:102980006011b80004025000858258000603590007
:1029900087835900000006009afd07000400be006e
:1029a00000000600839f68000100e00002003d0077
:1029b00060001000e08018000300e00002003d000d
:1029c00060011100e08119008efd07004f00e0005a
:1029d00002003b0060001000e080180000000600cc
:1029e0000004be00570007000003be000405be003f
:1029f0000200be0053000700844f7500000006006f
:102a00000200be006450e100050036006420e100d1
:102a1000020036000968a30001003a000800be0069
:102a20000160a0004f0678004f05be004f04be00b5
:102a300000000600f0ff2f00f1ff2700f9ff37002c
:102a400081002000618055000b003d000b0020003c
:102a500061fe2f000100e1001d0034008281710041
:102a6000610164008904d1000884d3000000e800fb
:102a7000faff3a007100200061006400030070005a
:102a8000020060000900320061044400e0844c0050
:102a90000988a500050032008b05e8006808e10000
:102aa00002003a008904d1000884d300f20f20000c
:102ab0000258e10005003d00c75ddd00f907b200e6
:102ac0008980750008007800000006000bf82700d8
:102ad0008b00780000000500889fbe008a9fbe0022
:102ae000841f7800beff07004f00780011003300fc
:102af000f0ff2f00838f6c0006003b00040565008b
:102b00000a00a7000800370009f0a6001000200006
:102b100008003700820f5400838f5c0003003900e7
:102b20001000200001003e000000200009f0a70076
:102b30000000ea004f05be004f04be000000e000a8
:102b400000000600c70ade00f107b200f50fb20070
:102b500008003200e1cf4200020032000170a00004
:102b600024000500810f70000100320004080500f8
:102b700044000500810f700002003a0014000500b7
:102b80008502e9000000400081c04800fcff3b00d6
:102b90000170a00024000500889fbe008a9fbe002f
:102ba0008c9fbe000404b8000506b80089044600e6
:102bb00060854e000606b8000a054600e0854e0016
:102bc0000706b8008b054600040eb80089044600cd
:102bd0000a854e00e0854d00050eb8000a05460046
:102be0008b854e00060eb8008b0546000416b80013
:102bf0000a0546008b854e000516b8008b05460079
:102c0000041eb8008b0546000800be000a01be0085
:102c10004f06be004f05be004f04be000000060078
:020000040000fa
:020000040005f5
:0457f800eefa0000c5
:020000040000fa
:020000040005f5
:0457fc007f3e0000ec
:020000040000fa
:10000800a08b0100b48b0100c88b0100dc8b0100c0
:10001800f08b0100a08b0100a08b0100a08b0100d8
:10002800a08b0100a08b0100a08b0100e6870100d6
:10003800a08b0100a08b0100a08b0100a08b010008
:10004800a08b0100a08b0100a08b01006e8b01002a
:10005800a08b01000ca60000a08b0100a08b010062
:10006800a08b0100a08b0100a08b0100a08b0100d8
:1000780006910100a08b0100a08b0100a08b01005c
:10008800a08b0100a08b0100a08b0100a08b0100b8
:10009800a2860100048c01008e8b0100a08b010058
:1000a800a08b0100a08b0100a08b0100a08b010098
:1000b800a08b0100a08b0100a08b0100a08b010088
:1000c800a08b0100a08b0100a08b0100a08b010078
:1000d800a08b0100a08b0100a08b0100a08b010068
:1000e800a08b0100a08b0100a08b0100a08b010058
:1000f800a08b01002c8c0100548c0100a08b010006
:10010800a08b0100a08b0100a08b0100a08b010037
:10011800a08b0100a08b0100a08b0100a08b010027
:10012800a08b0100a08b0100a08b0100a08b010017
:10013800a08b0100a08b0100a08b0100a08b010007
:10014800a08b0100a08b0100a08b0100a08b0100f7
:10015800a08b0100a08b0100a08b0100a08b0100e7
:10016800a08b0100a08b0100948b0100a08b0100e3
:10017800a08b0100a08b0100a08b0100a08b0100c7
:100188009a8b0100a08b0100a08b0100a08b0100bd
:10019800a08b0100a08b0100a08b0100a08b0100a7
:1001a800a08b0100a08b0100a08b0100a08b010097
:1001b800a08b0100a08b0100a08b0100a08b010087
:1001c800a08b0100a08b0100a08b0100a08b010077
:1001d800a08b0100a08b0100a08b0100a08b010067
:1001e800a08b0100a08b0100a08b0100a08b010057
:0801f800a08b0100a08b0100a7
:020000040000fa
:10020800a08b0100b48b0100c88b0100dc8b0100be
:10021800f08b0100a08b0100a08b0100a08b0100d6
:10022800a08b0100a08b0100a08b0100e6870100d4
:10023800a08b0100a08b0100a08b0100a08b010006
:10024800a08b0100a08b0100a08b01006e8b010028
:10025800a08b01000ca60000a08b0100a08b010060
:10026800a08b0100a08b0100a08b0100a08b0100d6
:1002780006910100a08b0100a08b0100a08b01005a
:10028800a08b0100a08b0100a08b0100a08b0100b6
:10029800a2860100048c01008e8b0100a08b010056
:1002a800a08b0100a08b0100a08b0100a08b010096
:1002b800a08b0100a08b0100a08b0100a08b010086
:1002c800a08b0100a08b0100a08b0100a08b010076
:1002d800a08b0100a08b0100a08b0100a08b010066
:1002e800a08b0100a08b0100a08b0100a08b010056
:1002f800a08b01002c8c0100548c0100a08b010004
:10030800a08b0100a08b0100a08b0100a08b010035
:10031800a08b0100a08b0100a08b0100a08b010025
:10032800a08b0100a08b0100a08b0100a08b010015
:10033800a08b0100a08b0100a08b0100a08b010005
:10034800a08b0100a08b0100a08b0100a08b0100f5
:10035800a08b0100a08b0100a08b0100a08b0100e5
:10036800a08b0100a08b0100948b0100a08b0100e1
:10037800a08b0100a08b0100a08b0100a08b0100c5
:100388009a8b0100a08b0100a08b0100a08b0100bb
:10039800a08b0100a08b0100a08b0100a08b0100a5
:1003a800a08b0100a08b0100a08b0100a08b010095
:1003b800a08b0100a08b0100a08b0100a08b010085
:1003c800a08b0100a08b0100a08b0100a08b010075
:1003d800a08b0100a08b0100a08b0100a08b010065
:1003e800a08b0100a08b0100a08b0100a08b010055
:0803f800a08b0100a08b0100a5
:020000040000fa
:102c20002144000045460000000d00000a0000009d
:102c30007478000074000000687400006d000000eb
:102c4000687400006d6c000000630000676900009c
:102c5000007800006d6c00000063000073730000da
:102c60000067000069660000007000006e670000e9
:102c7000006a000070670000006300006c610000e3
:102c800000770000617600000000000000000000f6
:102c900000000000189600001c960000209600001e
:102ca00025960000299600002d9600003196000020
:102cb00035960000399600003d96000041960000d0
:102cc0004596000074650000787400002f700000c5
:102cd0006c610000696e00000074000065780000ff
:102ce000742f0000687400006d6c00000074000018
:102cf00065780000742f0000786d00006c00000003
:102d000074650000787400002f6300007373000086
:102d1000006900006d610000676500002f6700001a
:102d200069660000006900006d61000067650000d1
:102d30002f7000006e670000006900006d610000e8
:102d4000676500002f6a00007065000067000000e2
:102d500061700000706c0000696300006174000025
:102d6000696f00006e2f00006a610000766100004c
:102d70002d7600006d0000006175000064690000a0
:102d80006f2f0000782d000077610000766500004d
:102d900000000000629600006d9600006d96000035
:102da0006d960000779600008096000089960000de
:102db000939600009d960000a8960000bc96000027
:102dc000c996000048540000545000002f31000004
:102dd0002e3100002032000030300000204f000073
:102de0004b0d00000a4300006f6e00006e6500008e
:102df00063740000696f00006e3a000020630000f9
:102e00006c6f0000736500000d0a000000480000b0
:102e100054540000502f0000312e000031200000db
:102e200034300000302000004261000064200000c7
:102e3000526500007175000065730000740d00009c
:102e40000a4300006f6e00006e65000063740000ae
:102e5000696f00006e3a0000206300006c6f000094
:102e6000736500000d0a00000d0a000034300000f8
:102e70003020000042610000642000005265000024
:102e80007175000065730000743a00002063000053
:102e9000616e00002774000020680000616e000071
:102ea000646c000065200000436f00006e74000039
:102eb000656e0000742d00004c6500006e67000018
:102ec000746800000d0a000000480000545400001f
:102ed000502f0000312e000031200000343000005f
:102ee00031200000556e000061750000746800001c
:102ef0006f720000697a0000656400000d0a00002e
:102f000057570000572d00004175000074680000fd
:102f1000656e000074690000636100007465000064
:102f20003a20000042610000736900006320000045
:102f300072650000616c00006d3d000022500000d1
:102f4000726f000074650000637400006564000027
:102f5000220d00000a4300006f6e00006e65000045
:102f600063740000696f00006e3a00002063000087
:102f70006c6f0000736500000d0a00000d0a000070
:102f80003430000031200000556e000061750000f3
:102f9000746800006f720000697a000065640000c8
:102fa0003a2000005061000073730000776f00004a
:102fb00072640000207200006571000075690000f5
:102fc00072650000640d00000a0000004854000013
:102fd000545000002f3100002e310000203400003a
:102fe00030340000204e00006f74000020660000a6
:102ff0006f7500006e6400000d0a0000436f000052
:103000006e6e000065630000746900006f6e000062
:103010003a200000636c00006f730000650d000033
:103020000a0d00000a340000303400003a2000008d
:10303000466900006c650000206e00006f7400009f
:10304000206600006f7500006e6400000d0a00002d
:103050000048000054540000502f0000312e0000a2
:10306000312000003431000034200000526500009f
:103070007175000065730000742d0000555200004a
:1030800049200000546f00006f2000004c6f0000ca
:103090006e6700000d0a0000436f00006e6e0000b6
:1030a00065630000746900006f6e00003a20000044
:1030b000636c00006f730000650d00000a0d0000d6
:1030c0000a34000031340000205200006571000015
:1030d00075650000737400002d5500005249000012
:1030e000205400006f6f0000204c00006f6e000045
:1030f000673a000020420000756600006665000027
:10310000722000006f76000065720000666c00009f
:103110006f770000206400006574000065630000a4
:1031200074650000640d00000a00000048540000af
:10313000545000002f3100002e31000020350000d7
:1031400030300000204900006e74000065720000fd
:103150006e6100006c200000536500007276000074
:103160006572000020450000727200006f7200005e
:103170000d0a0000436f00006e6e000065630000e2
:10318000746900006f6e00003a200000636c00005c
:103190006f730000650d00000a0d00000a35000085
:1031a00030300000204900006e740000657200009d
:1031b0006e6100006c200000536500007276000014
:1031c0006572000020450000727200006f720000fe
:1031d0003a2000004578000070650000637400002c
:1031e000656400002064000061740000612000003c
:1031f0006e6f0000742000007072000065730000a4
:10320000656e0000740d00000a00000048540000c4
:10321000545000002f3100002e31000020350000f6
:1032200030310000204e00006f7400002049000083
:103230006d7000006c6500006d6500006e7400002c
:10324000656400000d0a0000436f00006e6e000010
:1032500065630000746900006f6e00003a20000092
:10326000636c00006f730000650d00000a0d000024
:103270000a35000030310000204e00006f7400005d
:10328000204900006d7000006c6500006d65000055
:103290006e740000656400003a2000004f6e00006c
:1032a0006c790000204700004554000020610000b8
:1032b0006e640000205000004f53000054200000b6
:1032c00073750000707000006f720000746500007c
:1032d000640d00000a000000485400005450000033
:1032e0002f3100002e31000020330000303200006a
:1032f000204600006f7500006e6400000d0a00009b
:10330000436f00006e6e000065630000746900008a
:103310006f6e00003a200000636c00006f730000c5
:10332000650d00000a4c00006f630000617400002e
:10333000696f00006e3a0000200000004854000051
:10334000545000002f3100002e31000020340000c6
:1033500030330000204600006f72000062690000f8
:1033600064640000656e00000d0a0000436f0000f9
:103370006e6e000065630000746900006f6e0000ef
:103380003a200000636c00006f730000650d0000c0
:103390000a0d00000a34000030330000204600000f
:1033a0006f7200006269000064640000656e0000d6
:1033b0003a200000535300004c20000052650000ea
:1033c000717500006972000065640000202d000026
:1033d0002075000073650000204800005454000070
:1033e000505300000d0a000000000000e2960000ab
:1033f000e29600000797000065970000e69700003e
:103400002998000096980000069900006c99000029
:103410009e990000436f00006f6b0000696500001b
:103420003a00000041750000746800006f720000ef
:10343000697a000061740000696f00006e3a000054
:10344000004300006f6e0000746500006e740000a1
:103450002d4c0000656e000067740000683a0000a3
:10346000000000000a9a0000129a0000219a000051
:103470004745000054000000696e000064650000cc
:10348000782e0000687400006d0000000d0a000036
:103490000d0a0000333000003420000052650000a7
:1034a0006469000072650000637400003a20000047
:1034b000004300006f6e0000746500006e74000031
:1034c0002d54000079700000653a000020000000d3
:1034d000436f00006e740000656e0000742d0000e4
:1034e000456e0000636f0000646900006e670000b5
:1034f0003a200000677a0000697000000d0a0000a1
:103500000043000061630000686500002d43000077
:103510006f6e0000747200006f6c00003a200000b3
:10352000006e00006f2d0000636100006368000002
:10353000650000006d610000782d000061670000eb
:10354000653d000000360000303000000000000043
:103550000102000003040000050600000708000047
:10356000090a00000b53000065740000205300009e
:1035700053490000440d00000a000000536500009c
:10358000742000004e650000747700006f72000028
:103590006b20000054790000706500000d0a0000e7
:1035a00000530000657400002053000063610000b8
:1035b0006e20000054790000706500000d0a0000c4
:1035c00000530000657400002043000068610000a3
:1035d0006e6e0000656c0000204c000069730000f6
:1035e000740d00000a000000536500007420000004
:1035f0006c690000737400002072000065740000a4
:1036000072790000206300006f7500006e74000086
:103610000d0a000000530000657400002045000002
:10362000766500006e740000204e00006f7400008c
:1036300069660000790d00000a000000446900007e
:1036400073610000626c00006520000050530000b0
:103650002d5000006f6c00006c0d00000a0000008f
:10366000456e0000616200006c65000020500000a3
:10367000532d0000506f00006c6c00000d0a00001c
:1036800000530000657400002042000065610000e6
:10369000636f00006e200000546900006d6500003b
:1036a0006f750000740d00000a00000053650000f3
:1036b00074200000736500006375000072690000eb
:1036c000747900003a200000006f0000706500006f
:1036d0006e0d00000a000000574500005034000045
:1036e000300d00000a000000574500005031000076
:1036f000303400000d0a0000005700005041000067
:103700002077000069740000682000006b650000ed
:10371000790d00000a000000575000004120000011
:103720007769000074680000207000006173000079
:10373000732d000070680000726100007365000066
:103740002028000057410000524e0000494e000062
:10375000473a000020740000686500002066000001
:103760006c790000706f0000727400002077000018
:10377000696c00006c20000073700000656e000032
:1037800064200000616200006f750000742000007a
:103790003330000020730000656300006f6e00008e
:1037a00064730000207400006f200000636100005b
:1037b0006c630000756c00006174000065200000ff
:1037c00074680000652000006b6500007929000026
:1037d0000d0a000000570000504100003220000098
:1037e0007769000074680000206b000065790000b4
:1037f0000d0a000000570000504100003220000078
:103800007769000074680000207000006173000098
:10381000732d000070680000726100007365000085
:103820002028000057410000524e0000494e000081
:10383000473a000020740000686500002066000020
:103840006c790000706f0000727400002077000037
:10385000696c00006c20000073700000656e000051
:1038600064200000616200006f7500007420000099
:103870003330000020730000656300006f6e0000ad
:1038800064730000207400006f200000636100007a
:103890006c630000756c000061740000652000001e
:1038a00074680000652000006b6500007929000045
:1038b0000d0a0000005700005041000020410000a8
:1038c000555400004f200000776900007468000024
:1038d000206b0000657900000d0a00000057000011
:1038e0005041000020410000555400004f200000ce
:1038f00077690000746800002070000061730000a8
:10390000732d000070680000726100007365000094
:103910002028000057410000524e0000494e000090
:10392000473a00002074000068650000206600002f
:103930006c790000706f0000727400002077000046
:10394000696c00006c20000073700000656e000060
:1039500064200000616200006f75000074200000a8
:103960003330000020730000656300006f6e0000bc
:1039700064730000207400006f2000006361000089
:103980006c630000756c000061740000652000002d
:1039900074680000652000006b6500007929000054
:1039a0000d0a0000005300007461000072740000f2
:1039b000205700006946000069200000436f0000a6
:1039c0006e6e000065630000740d00000a000000c8
:1039d00032400000213f00005e5e00005e7100008a
:1039e000593a00003140000000000000070c0000c0
:1039f00011160000070c000011160000070c000053
:103a000011160000070c0000111600000509000047
:103a10000e140000050900000e1400000509000046
:103a20000e140000050900000e140000040b000035
:103a300010170000040b000010170000040b00001a
:103a400010170000040b000010170000060a000009
:103a50000f150000060a00000f150000060a0000fe
:103a60000f150000060a00000f15000078a40000e2
:103a70006ad7000056b70000c7e80000db700000fe
:103a800020240000eece0000bdc10000af0f0000fa
:103a90007cf500002ac6000087470000134600009e
:103aa00030a800000195000046fd0000d8980000f5
:103ab00080690000aff70000448b0000b15b00009c
:103ac000ffff0000bed700005c890000221100004b
:103ad000906b00009371000098fd00008e43000081
:103ae00079a6000021080000b4490000622500000a
:103af0001ef6000040b3000040c00000515a000014
:103b00005e260000aac70000b6e900005d100000b4
:103b10002fd60000531400004402000081e600008c
:103b2000a1d80000c8fb0000d3e70000e6cd0000ec
:103b3000e1210000d607000037c30000870d000018
:103b4000d5f40000ed1400005a45000005e900001e
:103b5000e3a90000f8a30000effc0000d902000078
:103b60006f6700008a4c00002a8d00004239000077
:103b7000faff000081f6000071870000226100005a
:103b80009d6d00000c380000e5fd000044ea0000d7
:103b9000bea40000a9cf0000de4b0000604b000077
:103ba000bbf6000070bc0000bfbe0000c67e000077
:103bb0009b280000fa270000a1ea000085300000e1
:103bc000efd40000051d00008804000039d000007b
:103bd000d4d90000e5990000dbe60000f87c000085
:103be000a21f000065560000acc400004422000083
:103bf00029f4000097ff00002a430000a7230000db
:103c000094ab000039a0000093fc0000c3590000f1
:103c10005b65000092cc00000c8f00007df400007a
:103c2000efff0000d15d0000848500004f7e0000a2
:103c3000a86f0000e0e600002cfe00001443000026
:103c400001a30000a1110000084e0000827e0000c8
:103c500053f7000035f200003abd0000bbd200006f
:103c6000d72a000091d3000086eb000045760000c3
:103c7000656e0000743a0000204300006f6e000083
:103c80006e65000063740000696f00006e20000024
:103c900053750000636300006573000073660000e5
:103ca000756c00000d0a00000045000076650000fc
:103cb0006e7400003a200000436f00006e6e00003a
:103cc00065630000746900006f6e0000204600000c
:103cd000616900006c65000064200000202d000078
:103ce0002d20000065760000656e0000744900001c
:103cf0006e6600006f2000003d20000000250000df
:103d0000640d00000a00000045760000656e0000aa
:103d1000743a0000204300006f6e00006e650000e2
:103d200063740000696f00006e200000546500009d
:103d30006d7000006f72000061720000696c00001d
:103d4000792000004c6f000073740000202d0000eb
:103d50002d20000065760000656e000074490000ab
:103d60006e6600006f2000003d200000004500004e
:103d7000766500006e7400003a200000436f00007a
:103d80006e6e000065630000746900006f6e0000d5
:103d9000205200006565000073740000616200003d
:103da0006c69000073680000656400000d0a000083
:103db00000450000766500006e7400003a200000a7
:103dc000436f00006e6e00006563000074690000c0
:103dd0006f6e000020500000657200006d610000f1
:103de0006e6500006e7400006c790000204c0000cd
:103df0006f730000742000002d2d0000206500006e
:103e0000766500006e740000496e0000666f000069
:103e1000203d00002000000045760000656e000097
:103e2000743a000020530000636100006e2000001f
:103e300052650000737500006c7400007320000070
:103e40005265000061640000792c0000002500002c
:103e50006400000072650000737500006c7400005f
:103e6000730d00000a000000484500004c4f0000a0
:103e7000204d000043480000504200004f41000028
:103e8000524400000d0a000000450000484c0000ac
:103e90004f2000004d43000048500000424f0000fa
:103ea00041520000440d00000a000000415500008e
:103eb00054480000204c00004f470000494e0000cd
:103ec0000d0a0000000d00000a0000004d41000036
:103ed000494c000020460000524f00004d3a0000bf
:103ee0003c0000003e0d00000a00000052430000ac
:103ef00050540000205400004f3a00003c000000e5
:103f000044410000544100000d0a0000004600003a
:103f1000726f00006d3a0000200000000d0a0000e2
:103f2000546f00003a200000000d00000a4300001a
:103f3000433a0000200000000d0a00005375000005
:103f4000626a000065630000743a0000200000000f
:103f50000d0a00002e0d00000a0000000d0a0000ee
:103f60002e00000051550000495400000d0a0000c9
:103f700000000000466c0000797000006f720000c5
:103f80007420000073740000617200007469000006
:103f90006e6700002e2e00002e000000544300002b
:103fa00050000000413100000041000032000000dc
:103fb00041330000005500006e650000787000007d
:103fc000656300007465000064200000656e0000f9
:103fd000642000006f66000020700000726f000017
:103fe00067720000616d00002e2e00002e0d000093
:103ff0000a000000496e0000697400006961000059
:104000006c6900007a6900006e67000020550000ae
:10401000445000002e2e00002e0d00000a0000006b
:10402000464c0000590000000d0a00004e650000db
:104030007720000049500000204100006464000027
:1040400072650000737300003a200000000d00004c
:104050000a000000574600002041000053530000b2
:1040600045520000544900004f4e00003a20000025
:104070004d6f0000647500006c650000204e00006c
:10408000756d000062650000722000003d20000098
:104090000025000064200000200000004c690000a2
:1040a0006e650000204e0000756d00006265000026
:1040b000722000003d200000002500006400000088
:1040c000000000002c010000c800000001000000fa
:1040d000c80000002c010000030000003c000000ac
:1040e0003c0000000400000032000000c800000096
:1040f00008000000e8030000e803000008000000da
:10410000e8030000e803000009000000e8030000e5
:10411000e80300006c650000647300002e6300007b
:1041200067690000006c000065640000007000001a
:10413000726f00007465000063740000006100008d
:10414000646d0000696e0000006600006c7900007c
:10415000706f00007274000000000000466c0000e8
:10416000797000006f72000074200000636f00001f
:104170006e6e00006563000074650000642e000030
:104180002e2e000020680000656c00006c6f00009f
:10419000207700006f7200006c640000210d0000a9
:1041a0000a00000011110000222200003333000039
:1041b0004444000055550000666600007777000013
:1041c0008888000099990000aaaa0000bbbb0000e3
:1041d000cccc0000dddd0000eeee0000cecd000016
:1041e000acab00000d0a0000444800004350000042
:1041f0002f5000006f7700006572000020650000fe
:10420000766500006e740000206f0000636300009c
:104210007572000072650000640000002e0000004e
:1042200000040000a300000000000000504900004e
:104230004355000053000000466c000079700000f8
:104240006f720000744e00006574000000000000f2
:104250004f6e0000004f000066660000006900001d
:104260006e6600007261000000610000646800007a
:104270006f63000000540000435000000000000085
:104280002c280000290000002e000000256c0000f2
:104290006900000070610000737600000d0a0000e4
:1042a00000000000256400002e250000642e0000a0
:1042b000256400002e250000642500006300000036
:1042c000544900004d4900004e470000204f0000b7
:1042d00055540000210d00000a0000005661000046
:1042e0006c75000065200000256400000d0a0000c8
:1042f0000000000031320000372e0000302e000098
:10430000302e0000310000004d50000046530000e8
:104310000201000000000000494400004c4500007c
:104320000000000000040000a300000000000000e6
:10433000a6210000000000000101000001000000b3
:044340000600000073
:020000040000fa
:104344000c820400000000004d504600530201009e
:1043540011000a00a346ce00ffffcc0083ffff003c
:1043640028e408003128450048d568001668510043
:104374001ef16800ff922e00deae3e00dcca0a0089
:10438400a00100000096020000005f000900000088
:10439400eec561004f0000000000010000aa01000a
:1043a4000000f5000b000000110000000080130065
:1043b400614f0000000000000200b3000100000093
:1043c400060c0000000800000000800013614f008c
:1043d4000000000000000000b4010000000e0c000a
:1043e40000002d0001000000801361004f00000058
:1043f4000000020000bf010000003b000d000000af
:104404006000000000801300614f00000000000005
:104414000000c000010000009b0d0000003d0000f2
:104424000000800013614f00000000000000000045
:10443400d101000000d80d0000008100030000003d
:10444400801361004f0000000000000000e0010044
:104454000000590011000000200300000080130038
:10446400614f0000000000000000f50001000000a2
:1044740079140000009b00000000800013614f00cd
:1044840000000000000000000602000000141500f7
:1044940000005b0000000000801361004f0000007a
:1044a400000000000014020000006f00150000006e
:1044b4006500000000801300614f00000000000050
:1044c4000000240002000000d415000000c34600d0
:1044d4000000800013614f00000000000000000095
:1044e4003502000000975c0000002f00000000006f
:1044f400801361004f00000000000000004c020027
:104504000000c6005c000000ac0300000080130043
:10451400614f000000000000010061000200000083
:1045240072600000004620000000800013614f000c
:1045340000000000000000007602000000b88000c7
:10454400000005000a000000801361004f00000015
:1045540000000100008602000000bd008a00000087
:10456400db05000000801300614f00000000000024
:10457400010069006e646500782e6800746d0000a7
:104584006c656400732e6300676900000073740037
:1045940061747500732e78006d6c000000696d0005
:1045a40061676500732f610072726f00772e670078
:1045b40069660000696d6100676573002f626100c0
:1045c400722e670069660000696d6100676573009b
:1045d4002f6261007261630074697600652e670062
:1045e40069660000696d6100676573002f62610090
:1045f40072756c002e676900660069006d61670062
:1046040065732f0062672e006769660000696d009c
:1046140061676500732f6800336267002e67690065
:10462400660069006d61670065732f00696e740030
:10463400726f2e006a70670000696d006167650023
:10464400732f6c0065667400696e7400726f62008b
:10465400672e670069660000696d61006765730015
:104664002f6c6f00676f5f0069636f006e2e6900c7
:10467400636f0000696d6100676573002f4f700000
:10468400656e700069637500732e6a0070670000c0
:104694007363720069707400732f6d006368700037
:1046a4002e6a730000737400796c65002f737400b4
:1046b400796c65002e63730073001f008b08000083
:1046c4000000000000040000ecbd0700601c49006d
:1046d400962526002f6dca007b7f4a00f54ad70035
:1046e400e074a100088060001324d80090401000fa
:1046f400ecc18800cde69200ec1d69004723290037
:10470400ab2a8100ca655600655d66001640cc0080
:10471400ed9dbc00f7de7b00efbdf700de7bef0014
:10472400bdf7ba003b9d4e0027f7df00ff3f5c005a
:10473400666401006cf6ce004adac9009e2180004e
:10474400aac81f003f7e7c001f3f22001effae0050
:104754004fbf3c0079f3fb00bc3c4d00e7eda200e9
:104764004c5f7e00f5e4f900d949fa00d1f6dd008a
:10477400bbdfbd007772f700eed337004fd3df0005
:10478400fbdb6f00be789e00ee8e7700d2d76d0003
:104794005d4cdb00bb774f005f7cf4001b27690096
:1047a400fad1bc006d578f00eedebd00baba1a0014
:1047b4005fdd1b0057f5c500dd37af00eebe03001b
:1047c400a05dbc00a9bf6e0037fcda0078d6ce002d
:1047d4003e3afa008d93c700dcd1bb0045b96c00aa
:1047e4003e8b4000d87df800f0a1bc00f8111a00ff
:1047f4003d2ab300e5c567001fe5cb008f52fb00df
:104804001b03c900b3197e00b6455b00e647cf0021
:10481400caeb550055b76900b52c8b00659e5e0048
:10482400e5932600af2ff300faf15d00f99e1a001c
:10483400d2176f00d33a2f003ffba8009953d3003f
:10484400e9ba4d008b69450060e775007efed9002a
:1048540047e3bb00c522bb00c89bbb006575510084
:10486400fdfef800664cff007c94de00b5ef4a00c4
:10487400bba6bd002ef3bb00fcef7800da341f00aa
:104884002948fc00ddccf300bcfd28006daf5700c7
:10489400f9671f00b5f9bb00f62e37006008cd009c
:1048a400b42e5600adffdd004f679700997cfa00e7
:1048b40051dad4005382c1007f34770017d3f90052
:1048c4006afcd300cd4747008fefca004778ff004a
:1048d400ae8e97007e9d5400b36b7c00342b2e006b
:1048e400d362f600d94784006a9b2f005b50e50031
:1048f400c7ec87001805410028161700025c070062
:10490400f7e52a005fae8a00e9ba1900fff4ea006d
:10491400e2a334002bdbcf003e7a8900bf8166001e
:10492400faf82e00bdce60007ed7ed006dfc680065
:10493400b349990033bc4500be5c7f00944eaa0085
:104944007a96d7009f7db400c39dd100f735ff0050
:10495400a45fe600e9b4cc001a9ad0006cda160021
:10496400973990006fe7c3005f36ab006c693e0077
:104974007c9b5f007f74f4006d1a2c007d765400dc
:104984002df2cd006f9a2f00e917ee009c7e0200f5
:1049940049fcba00bd1d9000a058b60075f5fb0097
:1049a400d7c5c500bc5574005706da00d5bc6800ed
:1049b4000998e1009aef1600cf8a740051cdd60011
:1049c400186ca3004cf4bb003ebebb0092d7e600bb
:1049d400bb47df002d689a00f3a64900bfeb3800ff
:1049e4008b3e1600a816ce0017160400cdc932005f
:1049f4009fb6f9002c6dab00f4ba5a00d7a9850014
:104a0400f03c5b008ed3e3009fcede00a5b36200d2
:104a1400992d8a00699aad0056653100cddaa2005d
:104a24005aa6c4009b57c000405e2a00f373e200fc
:104a340099799e00366dd600aee9f300f3f469006f
:104a44007151b40059996600cb597a00bccc680006
:104a54009ed3b300bb5f3600a9c5760075f4fb0096
:104a640054eb74000afaae009bb65a00143fc80017
:104a7400b97136009ba5170075b69a00538f2f00a5
:104a8400cbf5c50076b1040072d33a00cfda5c00ee
:104a9400ba3b5e00537bc100a3aad300d7f9b2008e
:104aa400a11fd3006ab12a00736a52002ccfab0055
:104ab4005abf2600014b5700c451a6005bc73900fa
:104ac40086fa8200b112de00716546008326c600b4
:104ad4006379f900eca35900d1acca00ecfad10017
:104ae400b25ad200749cd60075553f007a3ca90096
:104af40089174f008480e8008b9034000406ab00d3
:104b0400d75549007c98d500b3f42a006bd2b20083
:104b14006adab100edddf500a490a500ff1f1300d3
:104b24007ed34e00cf098b00f611f300c5e13900a6
:104b340001dc6e0088448f001eaede00c95f5700a2
:104b440039be21009468ac00e5e18a00c84618002b
:104b54006fb7d500ead101003581e80012e566009f
:104b640024708f007656ef003e3ada009ad2dc00c9
:104b7400bd0592006d75710051e677009491a50012
:104b8400dfd5d10097eb7600b56e1b001d56c00033
:104b9400f8653e005302fd00d8e34c00e893cf00d3
:104ba400763ea200d96798009f7db400ccaf8e00fa
:104bb400bf73fc007b9f54008b05cd00e0d6c7007b
:104bc40078613c00bd287e000ffae500b39d8f009c
:104bd400ef1c7e0074f40b0027ebb2003c7c7c00dd
:104be40037ebc200d9bd2d009cddcd0070f66e0000
:104bf4000b676f00339c7b00b78573006f339c0099
:104c0400fddbc200d98fc10011603200434662004f
:104c1400304b67004b6f92003c964100a79376009f
:104c240049faee00f7d0b700d25fb8009c34ab006d
:104c3400c37e9b00dd5bb400d9bb45009b7bb70002
:104c440068b3ef00daf8a300507d400082bdfb009a
:104c540028752f00acaa7600c78a5c009fc71d0088
:104c64002c81030011d2c600e95531006be78f0097
:104c7400f676f60089f5d300b9bcb5007b0f7f004a
:104c84004cb2e900db8bba005a2f6700dbd3aa00d1
:104c940024b9fd00f1877b009307b3007b87ca002a
:104ca400d146140053423800ab776d00ff02f10087
:104cb400e1ce2d0000eeee00ddfbf4007e7ea800c8
:104cc4005667bb0096c6ab007729ab00efb4a900ca
:104cd400ca62760008936000a43f44007e91d50028
:104ce40017c5920025777b00f73eba0010b8fc0088
:104cf400f6616a00241b3a00f611c60047902600ac
:104d0400868467002f761f00df9df800a0e5d7009a
:104d140038b5f7003ad47600a3fdb900a1f6de0059
:104d2400cf35b5003f7d5f006aef6d00a4b6b300d8
:104d34002e3d3300e39b77007c665500eb794b00f6
:104d4400fd1bed003abf7700f42a2700a3f9a60063
:104d540058e46400a59745005bc18000dfb373008d
:104d6400f9664e0046bb6f0087617a0057d555003f
:104d74005ec3f20056e43b00bd3c3b00f9ea75001b
:104d8400faacce0016f9550055bf1d00a76fa80058
:104d940085f31c00eaf5720049a34c00b3b4290062
:104da40060350300905b640069cb1600182c040086
:104db400833be900aa5c4b00276f4e005ede3d009a
:104dc4007b0933003f7d3b008697c7003420eb000e
:104dd400b1e4af00d90f980054ef6000a6d32600c9
:104de400cff9c300e9baae00c90c45007c83820048
:104df400b599ef0022c8270040975a005eab7f00a8
:104e0400c03e15008cbf7900af125b00657d0900c0
:104e140050c6fb0083e8f500c62708009c98800074
:104e24008ac6f10020cf2b00275783007d06180087
:104e3400c6397b00e4ec2f0034e4e00089f763001a
:104e44007c919500f8220d004ce83c00bbcced00b1
:104e540017974500b3ceca00e207ea00909c9b0076
:104e6400b15c660075019700af49c9001f49f300a2
:104e7400771928003d4e190089b3f600631a7700ac
:104e8400d9542900a1d9340005dc5700824bf30022
:104e9400927ec700fadbc1008bfcfb002c6b330055
:104ea4002217f500d65cd3002c121d00c8016c003b
:104eb400c841ab00c9072900afd3f300ba5a880030
:104ec4008b34a900892ff2007a0caa00883971006a
:104ed4005cdb650042e6cd00900b75009e5fe70049
:104ee4002df57000d104d40073fcc5001426df0036
:104ef40071965f001653c20003349d0010ede80064
:104f04002dfa940014ced3006f9fbc00848b8600ce
:104f1400a9274a001103120001acdb0037a73800af
:104f2400092c0200966e31007630dd00383d2500f4
:104f3400aff53a00259b090037eabc00b858d70002
:104f4400425985004e6fcd004a017f005ed48b002c
:104f5400abacce0089463900c549d40068ecb30037
:104f640084e98800e94c480011bbaf0097c52f00c5
:104f74005ae7e900b7c91b004b5f90007030550039
:104f8400a9499e0035d7290019679a00fa057800c7
:104f940095663100538ff2001d3c6100e65a1900fa
:104fa400659ce9003cf95d0054c450005f5858000a
:104fb4008e76e6002deb9b00076247005468d6000e
:104fc4008546320024d8eb00e9dcff00be21fd0059
:104fd40046c406005a04b4002629500018f4de0022
:104fe400b26a89005e845b0093d5d700448249008d
:104ff400cd02e0004327ea003604b6002966220009
:1050040094a20b0046c4e700fce79a0080a5b30015
:105014002a6f96001f039400c403d4009ca4ad001f
:1050240024ea52007fd4f200bc05b10047883b005b
:10503400ae53cc00da79760049bc0600ad0b3f00d4
:10504400dbb09c0073f19500e36e0a002ba9890084
:1050540004727700efa62f00b3bac90045d75000f9
:1050640050fd2a006f563400f45c18005b14c8002d
:10507400983e670095b15e00913868005bd52d00bd
:10508400a47a7e00e3e47c00bd1487005c1abc00b3
:10509400e6afb600e8ada700243d7700d25f4c0030
:1050a400a8916800d26cf300f8daf400331af8001f
:1050b400748da9001a5fe400ed69c900b3f6e40039
:1050c400fa8c1c0035f5ce003fbe330096405a00e2
:1050d400ff3e5400100813006e02a100a144040016
:1050e4000401a100019fcc007372cb000bf01b00e4
:1050f400d89f44003aada600ac326700d4a0380073
:10510400dffa5d000de6f4002770ff00310ff100b7
:105114008f1190007ccc8e009787cb00c7050700c9
:10512400861f1f00fe986800e83a6f00d7f512004a
:10513400ad7e8900e9f58b00ec2d11006d5d6300f7
:10514400e63ea6007f152b00d8048f009cfa2900a8
:10515400bde2f70069a0d300c77ea7000615e900e9
:10516400e0795500add28a00799c380008309f0060
:105174009f3e6d00e83b1200b8ad8200daef1c00e0
:10518400a645fa0038bd4f003f3ef9000463fb001a
:10519400b1611200e6b38f00d34fd200c2909000e9
:1051a4000d368100d8a28600bff71700cf7f3200ea
:1051b4002bd7b90099df5100ea9aa7009f115a0032
:1051c4001436a400bf47fa00f18f9f009f1f4c00c4
:1051d40076763e004e1fd100ef0f1e003cd88400af
:1051e400e964dd00b6c475005f0f5900f27a15005a
:1051f400d9822200c39a53005283a800dac68c00d5
:10520400ea7a2500b8fec200e7d9620032cb0e006c
:1052140019d99f0074987e00c5fccc0028befc0000
:10522400f20dd9001702d6004772ef00164892001b
:10523400eff7f100271d1400e3186a004b66b10074
:10524400000b28004e72e100d8087a0048ec0a00ee
:1052540012f72c0012ccb20010962b000a0519008c
:105264000cfd3200440fee006dabd800debd7300c0
:10527400e7cedd00fb871b00c7409d00f3188400c8
:1052840027d88100fcec6a00f6c9470014ec2a0018
:10529400ab036300fa419a00ff8d4800d6562f00f5
:1052a40012732a00e5e35100a02f4600695baf00aa
:1052b400f33b1f008deeef00ec60f40077ef72001b
:1052c400d6c64b0075f1ac00848e9e00dad366001e
:1052d400954f8b004ccd29004584920090f3320009
:1052e4008895cd006e918900b94b990038e4fe0091
:1052f4003efb8800a8510000838f8e005eaa6100e7
:105304009d5c7b00de5c9b004fe74b0062fd8b00e5
:105314006b0d13004de7ee00a749b900dd455a00b7
:10532400f2e837004efe9f0000000000ffffc500ba
:10533400c8158400351500000053750063636500cb
:1053440073732100207e6c006564280030297e0080
:10535400090000000000000000003c0072657300ba
:10536400706f6e0073653e000d0a3c006c6564004e
:10537400303e7e006c656400283029007e3c2f009e
:105384006c656400303e0d000a3c6c0065643100bd
:105394003e7e6c006564280031297e003c2f6c0041
:1053a400656431003e0d0a003c6c650064323e00c9
:1053b4007e6c650064283200297e3c002f6c6500f9
:1053c40064323e000d0a3c006c656400333e7e008e
:1053d4006c656400283329007e3c2f006c656400f2
:1053e400333e0d000a3c6c00656434003e7e6c0064
:1053f4006564280034297e003c2f6c006564340009
:105404003e0d0a003c6274006e303e007e62740001
:105414006e283000297e3c002f6274006e303e00fe
:105424000d0a3c0062746e00313e7e0062746e00b0
:10543400283129007e3c2f0062746e00313e0d003d
:105444000a3c6200746e32003e7e6200746e280074
:1054540032297e003c2f6200746e32003e0d0a0039
:105464003c6274006e333e007e6274006e2833002a
:10547400297e3c002f6274006e333e000d0a3c000e
:1054840062746e00343e7e0062746e00283429001b
:105494007e3c2f0062746e00343e0d000a3c7000a6
:1054a4006f7430003e7e70006f74280030297e00d7
:1054b4003c2f70006f7430003e0d0a003c706f008a
:1054c40074313e007e706f0074283100297e3c00e8
:1054d4002f706f0074313e000d0a3c002f7265007e
:1054e40073706f006e7365003e0d0a0012000000b9
:1054f400000000000000290000000000010000007e
:1055040000400000000002000000000057000000fe
:105514000003000000006e00000000000400000012
:105524000085000000000500000000009c00000051
:10553400000600000000b3000000000007000000a7
:1055440000ca00000000080000000000e1000000a4
:10555400000900000000f800000000000a0000003c
:10556400000f010000000b00000000004749460046
:10557400383961000f0007000080000000000000bf
:1055840000ffff00ff21f9000409000000000000f3
:105594002c00000000000f000007000000021400af
:1055a400846fa1001b88fd00dc690b004049ad003d
:1055b40096ba5e00f76d1800a31400003b4749003b
:1055c40046383900619600002500d5000000c0006f
:1055d400c0c0c400c4c4c700c7c7cb00cbcbcf0076
:1055e400cfcfd200d2d2d600d6d6da00dadadb00b8
:1055f400dbdbde00dededf00dfdfe200e2e2e5002f
:10560400e5e5e600e6e6e700e7e7e800e8e8ea00c3
:10561400eaeaeb00ebebec00ececed00ededee0078
:10562400eeeeef00efeff000f0f0f100f1f1f20038
:10563400f2f2f300f3f3f400f4f4f600f6f6f700f4
:10564400f7f7f800f8f8f900f9f9fa00fafafb00ac
:10565400fbfbfc00fcfcfd00fdfdfe00fefeff006c
:10566400ffff000000000000000000000000000038
:105674000000000000000000000000000000000026
:105684000000000000000000000000000000000016
:105694000000000000000000000000000000000006
:1056a40000000000000000000000000000000000f6
:1056b40000000000000000000000000000000000e6
:1056c40000000000000000000000000000002c00aa
:1056d40000000000009600002500000008fe000005
:1056e40049081c0048b0a000c1830800132a5c00cc
:1056f400c8b0a100c3871000234a9c0048b1a2008f
:10570400c58b1800336adc00c8b1a300c78f200022
:10571400438a1c0049b2a400c993280053aa5c0020
:10572400c9b26500c411300063ca9c0049b3a60025
:10573400cd9b380073eadc00c9b3a7004f9c04007a
:105744007f0a1d004ab4a800d1a3340083225d005f
:10575400cab4a900d39e040045489d004ab5aa00d6
:10576400d5ab5800b36add00cab5ab00d7af600053
:10577400b5460d004bb6ac00d9b36800d3561d0036
:10578400abb6ad00dbb77000bd120c0041b7ae0084
:10579400ddbb7800f3eadd00cbb7af00dfbf8000ec
:1057a400030be6004b108400e1c38800132b5e005a
:1057b400ccb8b100e3c79000234b9e004cd9310014
:1057c400c10f9800336bde00ccb9b300e7cfa00063
:1057d400438b1e004dbab40069d0020045903800d6
:1057e400cdbab500ebd7b00063731600f88184001e
:1057f40087dbb80073ebde00cdbbb700efdfc00082
:10580400830b1f004ebcf8006f811c006c1b5f00f3
:10581400cebcb900f3e7d000750bd40040a28300de
:10582400f5ebd800b36bdf00cebdbb00f7efe000b3
:10583400c3fe8b001f4fde00bbc00b002438a80042
:105844005fcfbe00bdfbf700f0e3cb009f4fbf006e
:10585400befdfb00f8e50b00a440620083ffff00df
:1058640000062800e08004001668e0008108260095
:10587400a8e082000c1a28005004fd003528e1003d
:105884008414560068e18500010af40000091a0036
:1058940074e8e1008720860028e2880024966800e6
:1058a400e2892800a6a8e2008a250a00c4000900ab
:1058b40019c42800e38c3400d668e3008d38e60070
:1058c400a8e38e003cf6e800e38f39000ab4000038
:1058d4000918140069e491004826a900e4924c00d8
:1058e40036e9e4009350460029e594004d0aa400eb
:1058f4000009170064a9e500965c7600e9e59700c5
:1059040060862900e69864009669e60099610a00b9
:105914008400090016b4e900e69b7000c629e7007c
:105924009c74d60069e79d0078e6a900e79e75009f
:105934000a740000091504002ae8a00084166a000d
:10594400e8a1880026aae800a28c3600eae8a300b1
:10595400890a640000091400546ae900a5986600e5
:10596400aae9a6009c76ea00e9a7a000862aea0034
:10597400a89d0a005400090013a4aa00eaaaac00d6
:10598400b6eaea00aba8b000c62aeb00acb4d60075
:105994006aebad00b19a4a000204bc00f6eaeb00df
:1059a400afc006002becb000c4166b00ecb1c8000d
:1059b40026ab2c00b1021100b02b040012f01a0027
:1059c4002db4d200564bed00b5d366006badb600d6
:1059d400d86eeb006db7e000722bee00b7e38600e3
:1059e4004beeb900e6a62b00d00024003ce0ee000c
:1059f400bbf0c6002befbc00f4d66b00efbdf80083
:105a0400e6abef00befcda002b9000002438200047
:105a1400f0c00400176cf000c1082700acf0c2000d
:105a24000c37ec00f0c310002b2c500000013700a1
:105a340010f1c5001867ac00f1c61c00132c10004f
:105a44000024240070c0c80024976c00f2c9280008
:105a5400a7acf200ca2cb700ecf2cb0030c7ac0004
:105a640032082400040400003b474900463839004a
:105a7400619600002500c4000000d300d3d3d500f4
:105a8400d5d5d800d8d8d900d9d9de00dededf00dc
